{
  "contractName": "VotingOracle",
  "abi": [
    {
      "anonymous": false,
      "inputs": [
        {
          "indexed": true,
          "internalType": "address",
          "name": "previousOwner",
          "type": "address"
        },
        {
          "indexed": true,
          "internalType": "address",
          "name": "newOwner",
          "type": "address"
        }
      ],
      "name": "OwnershipTransfered",
      "type": "event"
    },
    {
      "constant": true,
      "inputs": [],
      "name": "owner",
      "outputs": [
        {
          "internalType": "address",
          "name": "",
          "type": "address"
        }
      ],
      "payable": false,
      "stateMutability": "view",
      "type": "function"
    },
    {
      "constant": false,
      "inputs": [
        {
          "internalType": "address",
          "name": "newOwner",
          "type": "address"
        }
      ],
      "name": "transferOwnership",
      "outputs": [],
      "payable": false,
      "stateMutability": "nonpayable",
      "type": "function"
    },
    {
      "constant": true,
      "inputs": [
        {
          "internalType": "bytes32",
          "name": "_candidateId",
          "type": "bytes32"
        }
      ],
      "name": "candidateExists",
      "outputs": [
        {
          "internalType": "bool",
          "name": "",
          "type": "bool"
        }
      ],
      "payable": false,
      "stateMutability": "view",
      "type": "function"
    },
    {
      "constant": false,
      "inputs": [
        {
          "internalType": "string",
          "name": "_name",
          "type": "string"
        },
        {
          "internalType": "string",
          "name": "_personalId",
          "type": "string"
        }
      ],
      "name": "addCandidate",
      "outputs": [
        {
          "internalType": "bytes32",
          "name": "",
          "type": "bytes32"
        }
      ],
      "payable": false,
      "stateMutability": "nonpayable",
      "type": "function"
    },
    {
      "constant": true,
      "inputs": [],
      "name": "getAllCandidates",
      "outputs": [
        {
          "internalType": "bytes32[]",
          "name": "",
          "type": "bytes32[]"
        }
      ],
      "payable": false,
      "stateMutability": "view",
      "type": "function"
    },
    {
      "constant": true,
      "inputs": [
        {
          "internalType": "bytes32",
          "name": "_candidateId",
          "type": "bytes32"
        }
      ],
      "name": "getCandidate",
      "outputs": [
        {
          "internalType": "bytes32",
          "name": "id",
          "type": "bytes32"
        },
        {
          "internalType": "string",
          "name": "name",
          "type": "string"
        },
        {
          "internalType": "string",
          "name": "personalId",
          "type": "string"
        },
        {
          "internalType": "uint8",
          "name": "voteCount",
          "type": "uint8"
        }
      ],
      "payable": false,
      "stateMutability": "view",
      "type": "function"
    },
    {
      "constant": false,
      "inputs": [
        {
          "internalType": "bytes32",
          "name": "_candidateId",
          "type": "bytes32"
        }
      ],
      "name": "update",
      "outputs": [
        {
          "internalType": "uint8",
          "name": "",
          "type": "uint8"
        }
      ],
      "payable": false,
      "stateMutability": "nonpayable",
      "type": "function"
    },
    {
      "constant": true,
      "inputs": [],
      "name": "testConnection",
      "outputs": [
        {
          "internalType": "bool",
          "name": "",
          "type": "bool"
        }
      ],
      "payable": false,
      "stateMutability": "pure",
      "type": "function"
    },
    {
      "constant": true,
      "inputs": [],
      "name": "getAddress",
      "outputs": [
        {
          "internalType": "address",
          "name": "",
          "type": "address"
        }
      ],
      "payable": false,
      "stateMutability": "view",
      "type": "function"
    },
    {
      "constant": false,
      "inputs": [],
      "name": "addTestData",
      "outputs": [],
      "payable": false,
      "stateMutability": "nonpayable",
      "type": "function"
    }
  ],
  "bytecode": "0x6080604052336000806101000a81548173ffffffffffffffffffffffffffffffffffffffff021916908373ffffffffffffffffffffffffffffffffffffffff16021790555061119e806100536000396000f3fe608060405234801561001057600080fd5b506004361061009e5760003560e01c80638b147245116100665780638b1472451461031a5780638da5cb5b14610362578063a212b454146103ac578063dfb6419f146103b6578063f2fde38b146104dd5761009e565b806326541b56146100a35780632e6997fe146102095780633412a15c1461026857806338cc48311461028a5780634a5b8398146102d4575b600080fd5b6101f3600480360360408110156100b957600080fd5b81019080803590602001906401000000008111156100d657600080fd5b8201836020820111156100e857600080fd5b8035906020019184600183028401116401000000008311171561010a57600080fd5b91908080601f016020809104026020016040519081016040528093929190818152602001838380828437600081840152601f19601f8201169050808301925050505050505091929192908035906020019064010000000081111561016d57600080fd5b82018360208201111561017f57600080fd5b803590602001918460018302840111640100000000831117156101a157600080fd5b91908080601f016020809104026020016040519081016040528093929190818152602001838380828437600081840152601f19601f820116905080830192505050505050509192919290505050610521565b6040518082815260200191505060405180910390f35b610211610744565b6040518080602001828103825283818151815260200191508051906020019060200280838360005b83811015610254578082015181840152602081019050610239565b505050509050019250505060405180910390f35b6102706107fc565b604051808215151515815260200191505060405180910390f35b610292610805565b604051808273ffffffffffffffffffffffffffffffffffffffff1673ffffffffffffffffffffffffffffffffffffffff16815260200191505060405180910390f35b610300600480360360208110156102ea57600080fd5b810190808035906020019092919050505061080d565b604051808215151515815260200191505060405180910390f35b6103466004803603602081101561033057600080fd5b810190808035906020019092919050505061084a565b604051808260ff1660ff16815260200191505060405180910390f35b61036a6108dd565b604051808273ffffffffffffffffffffffffffffffffffffffff1673ffffffffffffffffffffffffffffffffffffffff16815260200191505060405180910390f35b6103b4610902565b005b6103e2600480360360208110156103cc57600080fd5b8101908080359060200190929190505050610d7a565b6040518085815260200180602001806020018460ff1660ff168152602001838103835286818151815260200191508051906020019080838360005b8381101561043857808201518184015260208101905061041d565b50505050905090810190601f1680156104655780820380516001836020036101000a031916815260200191505b50838103825285818151815260200191508051906020019080838360005b8381101561049e578082015181840152602081019050610483565b50505050905090810190601f1680156104cb5780820380516001836020036101000a031916815260200191505b50965050505050505060405180910390f35b61051f600480360360208110156104f357600080fd5b81019080803573ffffffffffffffffffffffffffffffffffffffff169060200190929190505050610f53565b005b60008060009054906101000a900473ffffffffffffffffffffffffffffffffffffffff1673ffffffffffffffffffffffffffffffffffffffff163373ffffffffffffffffffffffffffffffffffffffff161461057c57600080fd5b600083836040516020018083805190602001908083835b602083106105b65780518252602082019150602081019050602083039250610593565b6001836020036101000a03801982511681845116808217855250505050505090500182805190602001908083835b6020831061060757805182526020820191506020810190506020830392506105e4565b6001836020036101000a0380198251168184511680821785525050505050509050019250505060405160208183030381529060405280519060200120905061064e8161080d565b1561065857600080fd5b60016040518060800160405280838152602001868152602001858152602001600060ff16815250908060018154018082558091505090600182039060005260206000209060040201600090919290919091506000820151816000015560208201518160010190805190602001906106d09291906110c4565b5060408201518160020190805190602001906106ed9291906110c4565b5060608201518160030160006101000a81548160ff021916908360ff160217905550505050600060018080549050039050600181016002600084815260200190815260200160002081905550819250505092915050565b60608060018054905060405190808252806020026020018201604052801561077b5781602001602082028038833980820191505090505b509050600060018054905011156107f5576000809050600060018054905090505b60008111156107f2576001808203815481106107b457fe5b9060005260206000209060040201600001548383806001019450815181106107d857fe5b60200260200101818152505080806001900391505061079c565b50505b8091505090565b60006001905090565b600030905090565b60008060018054905014156108255760009050610845565b600060026000848152602001908152602001600020549050600081119150505b919050565b60006001610857836110a4565b8154811061086157fe5b9060005260206000209060040201600301600081819054906101000a900460ff168092919060010191906101000a81548160ff021916908360ff1602179055505060016108ad836110a4565b815481106108b757fe5b906000526020600020906004020160030160009054906101000a900460ff169050919050565b6000809054906101000a900473ffffffffffffffffffffffffffffffffffffffff1681565b6000809054906101000a900473ffffffffffffffffffffffffffffffffffffffff1673ffffffffffffffffffffffffffffffffffffffff163373ffffffffffffffffffffffffffffffffffffffff161461095b57600080fd5b6109cf6040518060400160405280600b81526020017f43616e64696461746520310000000000000000000000000000000000000000008152506040518060400160405280600381526020017f3030310000000000000000000000000000000000000000000000000000000000815250610521565b50610a446040518060400160405280600b81526020017f43616e64696461746520320000000000000000000000000000000000000000008152506040518060400160405280600381526020017f3030320000000000000000000000000000000000000000000000000000000000815250610521565b50610ab96040518060400160405280600b81526020017f43616e64696461746520330000000000000000000000000000000000000000008152506040518060400160405280600381526020017f3030330000000000000000000000000000000000000000000000000000000000815250610521565b50610b2e6040518060400160405280600b81526020017f43616e64696461746520340000000000000000000000000000000000000000008152506040518060400160405280600381526020017f3030340000000000000000000000000000000000000000000000000000000000815250610521565b50610ba36040518060400160405280600b81526020017f43616e64696461746520350000000000000000000000000000000000000000008152506040518060400160405280600381526020017f3030350000000000000000000000000000000000000000000000000000000000815250610521565b50610c186040518060400160405280600b81526020017f43616e64696461746520360000000000000000000000000000000000000000008152506040518060400160405280600381526020017f3030360000000000000000000000000000000000000000000000000000000000815250610521565b50610c8d6040518060400160405280600b81526020017f43616e64696461746520370000000000000000000000000000000000000000008152506040518060400160405280600381526020017f3030370000000000000000000000000000000000000000000000000000000000815250610521565b50610d026040518060400160405280600b81526020017f43616e64696461746520380000000000000000000000000000000000000000008152506040518060400160405280600381526020017f3030380000000000000000000000000000000000000000000000000000000000815250610521565b50610d776040518060400160405280600b81526020017f43616e64696461746520390000000000000000000000000000000000000000008152506040518060400160405280600381526020017f3030390000000000000000000000000000000000000000000000000000000000815250610521565b50565b60006060806000610d8a8561080d565b15610f1b5760006001610d9c876110a4565b81548110610da657fe5b90600052602060002090600402019050806000015481600101826002018360030160009054906101000a900460ff16828054600181600116156101000203166002900480601f016020809104026020016040519081016040528092919081815260200182805460018160011615610100020316600290048015610e6a5780601f10610e3f57610100808354040283529160200191610e6a565b820191906000526020600020905b815481529060010190602001808311610e4d57829003601f168201915b50505050509250818054600181600116156101000203166002900480601f016020809104026020016040519081016040528092919081815260200182805460018160011615610100020316600290048015610f065780601f10610edb57610100808354040283529160200191610f06565b820191906000526020600020905b815481529060010190602001808311610ee957829003601f168201915b50505050509150945094509450945050610f4c565b8460006040518060200160405280600081525090604051806020016040528060008152509080905093509350935093505b9193509193565b6000809054906101000a900473ffffffffffffffffffffffffffffffffffffffff1673ffffffffffffffffffffffffffffffffffffffff163373ffffffffffffffffffffffffffffffffffffffff1614610fac57600080fd5b600073ffffffffffffffffffffffffffffffffffffffff168173ffffffffffffffffffffffffffffffffffffffff161415610fe657600080fd5b8073ffffffffffffffffffffffffffffffffffffffff166000809054906101000a900473ffffffffffffffffffffffffffffffffffffffff1673ffffffffffffffffffffffffffffffffffffffff167f0d18b5fd22306e373229b9439188228edca81207d1667f604daf6cef8aa3ee6760405160405180910390a3806000806101000a81548173ffffffffffffffffffffffffffffffffffffffff021916908373ffffffffffffffffffffffffffffffffffffffff16021790555050565b600060016002600084815260200190815260200160002054039050919050565b828054600181600116156101000203166002900490600052602060002090601f016020900481019282601f1061110557805160ff1916838001178555611133565b82800160010185558215611133579182015b82811115611132578251825591602001919060010190611117565b5b5090506111409190611144565b5090565b61116691905b8082111561116257600081600090555060010161114a565b5090565b9056fea265627a7a7231582028c4f440bc94cea45e366e3be9995b0beac9673051e7d78ab8debd78be24860e64736f6c63430005100032",
  "source": "// SPDX-License-Identifier: MIT\npragma solidity >=0.4.22 <0.9.0;\n\nimport \"./Ownable.sol\";\n\ncontract VotingOracle is Ownable {\n    \n    Candidate[] candidates;\n    mapping (bytes32 => uint) candidateIdToIndex;\n\n    struct Candidate {\n        bytes32 id;\n        string name;\n        string personalId;\n        uint8 voteCount;\n    }\n\n    function _getCandidateIndex(bytes32 _candidateId) private view returns (uint) {\n        return candidateIdToIndex[_candidateId]-1;\n    }\n\n    function candidateExists(bytes32 _candidateId) public view returns (bool) {\n        if (candidates.length == 0)\n            return false;\n        \n        uint index = candidateIdToIndex[_candidateId];\n        return (index > 0);\n    }\n\n    function addCandidate(string memory _name, string memory _personalId) onlyOwner public returns (bytes32) {\n\n        // hash the crucial info to get a unique id\n        bytes32 id = keccak256(abi.encodePacked(_name, _personalId));\n\n        require(!candidateExists(id));\n\n        // add new candidate\n        candidates.push(Candidate(id, _name, _personalId, 0));\n        uint newIndex = candidates.length - 1;\n        candidateIdToIndex[id] = newIndex + 1;\n\n        return id;\n    }\n\n    function getAllCandidates() public view returns (bytes32[] memory) {\n        bytes32[] memory output = new bytes32[](candidates.length);\n\n        // get all ids\n        if (candidates.length > 0) {\n            uint index = 0;\n\n            for (uint n = candidates.length; n > 0; n--) {\n                output[index++] = candidates[n-1].id;\n            }\n        }\n\n        return output;\n    }\n\n    function getCandidate(bytes32 _candidateId) public view returns (\n        bytes32 id,\n        string memory name,\n        string memory personalId,\n        uint8 voteCount\n    ) {\n        // get the candidate\n        if (candidateExists(_candidateId)) {\n            Candidate storage candidate = candidates[_getCandidateIndex(_candidateId)];\n            return (candidate.id, candidate.name, candidate.personalId, candidate.voteCount);\n        } else {\n            return (_candidateId, \"\", \"\", 0);\n        }\n    }\n\n    function update(bytes32 _candidateId) public returns (uint8) {\n        candidates[_getCandidateIndex(_candidateId)].voteCount++;\n        return candidates[_getCandidateIndex(_candidateId)].voteCount;\n    }\n\n    function testConnection() public pure returns (bool) {\n        return true;\n    }\n\n    function getAddress() public view returns (address) {\n        return address(this);\n    }\n\n    function addTestData() external onlyOwner {\n        addCandidate(\"Candidate 1\", \"001\");\n        addCandidate(\"Candidate 2\", \"002\");\n        addCandidate(\"Candidate 3\", \"003\");\n        addCandidate(\"Candidate 4\", \"004\");\n        addCandidate(\"Candidate 5\", \"005\");\n        addCandidate(\"Candidate 6\", \"006\");\n        addCandidate(\"Candidate 7\", \"007\");\n        addCandidate(\"Candidate 8\", \"008\");\n        addCandidate(\"Candidate 9\", \"009\");\n    }\n\n\n}",
  "sourcePath": "/home/minhtc/Documents/GR1/oracle-ethereum/oracle/contracts/VotingOracle.sol",
  "compiler": {
    "name": "solc",
    "version": "0.5.16+commit.9c3226ce.Emscripten.clang"
  },
  "schemaVersion": "3.4.1",
  "updatedAt": "2021-05-27T11:56:01.315Z",
  "networkType": "ethereum",
  "devdoc": {
    "methods": {}
  },
  "userdoc": {
    "methods": {}
  }
}